8=FIX.4.2|9=84|35=A|34=1|49=KOLESCHENKO_EXTOR|52=20160621-10:55:09.402|56=LNETOR|98=0|108=60|141=Y|10=039|
8=FIX.4.2|9=84|35=A|34=1|49=LNETOR|52=20160621-10:55:09.471|56=KOLESCHENKO_EXTOR|98=0|108=60|141=Y|10=045|
8=FIX.4.2|9=84|35=A|34=1|49=KOLESCHENKO_EXTOR|52=20160621-10:55:35.574|56=LNETOR|98=0|108=60|141=Y|10=048|
8=FIX.4.2|9=84|35=A|34=1|49=LNETOR|52=20160621-10:55:35.618|56=KOLESCHENKO_EXTOR|98=0|108=60|141=Y|10=047|
8=FIX.4.2|9=158|35=D|34=2|49=KOLESCHENKO_EXTOR|52=20160621-10:55:39.623|56=LNETOR|11=order33960|15=EUR|21=2|38=100000|40=2|44=1|54=2|55=EUR/USD|59=4|60=20160621-10:55:39.612|10=242|
8=FIX.4.2|9=207|35=8|34=2|49=LNETOR|52=20160621-10:55:39.669|56=KOLESCHENKO_EXTOR|1=koleschenko_ext|6=0|11=order33960|14=0|15=EUR|17=NA|20=3|31=0|32=0|37=order33960|38=100000|39=0|40=2|44=1|54=2|55=EUR/USD|150=0|151=100000|10=217|
8=FIX.4.2|9=232|35=8|34=3|49=LNETOR|52=20160621-10:55:40.422|56=KOLESCHENKO_EXTOR|1=koleschenko_ext|6=0|11=order33960|14=0|15=EUR|17=NA|20=3|31=0|32=0|37=order33960|38=100000|39=4|40=2|44=1|54=2|55=EUR/USD|58=Expired: TTL exceeded|150=4|151=100000|10=236|
8=FIX.4.2|9=160|35=D|34=3|49=KOLESCHENKO_EXTOR|52=20160621-10:55:42.632|56=LNETOR|11=order37013|15=EUR|21=2|38=100000|40=2|44=1.4|54=1|55=EUR/USD|59=4|60=20160621-10:55:42.631|10=059|
8=FIX.4.2|9=209|35=8|34=4|49=LNETOR|52=20160621-10:55:42.682|56=KOLESCHENKO_EXTOR|1=koleschenko_ext|6=0|11=order37013|14=0|15=EUR|17=NA|20=3|31=0|32=0|37=order37013|38=100000|39=0|40=2|44=1.4|54=1|55=EUR/USD|150=0|151=100000|10=037|
8=FIX.4.2|9=234|35=8|34=5|49=LNETOR|52=20160621-10:55:43.442|56=KOLESCHENKO_EXTOR|1=koleschenko_ext|6=0|11=order37013|14=0|15=EUR|17=NA|20=3|31=0|32=0|37=order37013|38=100000|39=4|40=2|44=1.4|54=1|55=EUR/USD|58=Expired: TTL exceeded|150=4|151=100000|10=072|
8=FIX.4.2|9=158|35=D|34=4|49=KOLESCHENKO_EXTOR|52=20160621-10:55:45.644|56=LNETOR|11=order40025|15=EUR|21=2|38=100000|40=2|44=1|54=2|55=EUR/USD|59=3|60=20160621-10:55:45.644|10=235|
8=FIX.4.2|9=207|35=8|34=6|49=LNETOR|52=20160621-10:55:45.698|56=KOLESCHENKO_EXTOR|1=koleschenko_ext|6=0|11=order40025|14=0|15=EUR|17=NA|20=3|31=0|32=0|37=order40025|38=100000|39=0|40=2|44=1|54=2|55=EUR/USD|150=0|151=100000|10=200|
8=FIX.4.2|9=232|35=8|34=7|49=LNETOR|52=20160621-10:55:46.452|56=KOLESCHENKO_EXTOR|1=koleschenko_ext|6=0|11=order40025|14=0|15=EUR|17=NA|20=3|31=0|32=0|37=order40025|38=100000|39=4|40=2|44=1|54=2|55=EUR/USD|58=Expired: TTL exceeded|150=4|151=100000|10=229|
8=FIX.4.2|9=160|35=D|34=5|49=KOLESCHENKO_EXTOR|52=20160621-10:55:48.661|56=LNETOR|11=order43042|15=EUR|21=2|38=100000|40=2|44=1.4|54=1|55=EUR/USD|59=3|60=20160621-10:55:48.660|10=075|
8=FIX.4.2|9=209|35=8|34=8|49=LNETOR|52=20160621-10:55:48.709|56=KOLESCHENKO_EXTOR|1=koleschenko_ext|6=0|11=order43042|14=0|15=EUR|17=NA|20=3|31=0|32=0|37=order43042|38=100000|39=0|40=2|44=1.4|54=1|55=EUR/USD|150=0|151=100000|10=045|
8=FIX.4.2|9=234|35=8|34=9|49=LNETOR|52=20160621-10:55:49.464|56=KOLESCHENKO_EXTOR|1=koleschenko_ext|6=0|11=order43042|14=0|15=EUR|17=NA|20=3|31=0|32=0|37=order43042|38=100000|39=4|40=2|44=1.4|54=1|55=EUR/USD|58=Expired: TTL exceeded|150=4|151=100000|10=084|
8=FIX.4.2|9=158|35=D|34=6|49=KOLESCHENKO_EXTOR|52=20160621-10:55:51.671|56=LNETOR|11=order46052|15=EUR|21=2|38=100000|40=2|44=1|54=2|55=EUR/USD|59=0|60=20160621-10:55:51.670|10=233|
8=FIX.4.2|9=208|35=8|34=10|49=LNETOR|52=20160621-10:55:51.719|56=KOLESCHENKO_EXTOR|1=koleschenko_ext|6=0|11=order46052|14=0|15=EUR|17=NA|20=3|31=0|32=0|37=order46052|38=100000|39=0|40=2|44=1|54=2|55=EUR/USD|150=0|151=100000|10=247|
8=FIX.4.2|9=160|35=D|34=7|49=KOLESCHENKO_EXTOR|52=20160621-10:55:54.683|56=LNETOR|11=order49064|15=EUR|21=2|38=100000|40=2|44=1.4|54=1|55=EUR/USD|59=0|60=20160621-10:55:54.683|10=087|
8=FIX.4.2|9=210|35=8|34=11|49=LNETOR|52=20160621-10:55:54.730|56=KOLESCHENKO_EXTOR|1=koleschenko_ext|6=0|11=order49064|14=0|15=EUR|17=NA|20=3|31=0|32=0|37=order49064|38=100000|39=0|40=2|44=1.4|54=1|55=EUR/USD|150=0|151=100000|10=090|
8=FIX.4.2|9=158|35=D|34=8|49=KOLESCHENKO_EXTOR|52=20160621-10:55:57.694|56=LNETOR|11=order52075|15=EUR|21=2|38=100000|40=1|44=0|54=1|55=EUR/USD|59=0|60=20160621-10:55:57.694|10=001|
8=FIX.4.2|9=208|35=8|34=12|49=LNETOR|52=20160621-10:55:57.746|56=KOLESCHENKO_EXTOR|1=koleschenko_ext|6=0|11=order52075|14=0|15=EUR|17=NA|20=3|31=0|32=0|37=order52075|38=100000|39=0|40=1|44=0|54=1|55=EUR/USD|150=0|151=100000|10=000|
8=FIX.4.2|9=158|35=D|34=9|49=KOLESCHENKO_EXTOR|52=20160621-10:56:00.708|56=LNETOR|11=order55089|15=EUR|21=2|38=100000|40=1|44=0|54=2|55=EUR/USD|59=0|60=20160621-10:56:00.708|10=237|
8=FIX.4.2|9=208|35=8|34=13|49=LNETOR|52=20160621-10:56:00.756|56=KOLESCHENKO_EXTOR|1=koleschenko_ext|6=0|11=order55089|14=0|15=EUR|17=NA|20=3|31=0|32=0|37=order55089|38=100000|39=0|40=1|44=0|54=2|55=EUR/USD|150=0|151=100000|10=008|
8=FIX.4.2|9=159|35=D|34=10|49=KOLESCHENKO_EXTOR|52=20160621-10:56:03.722|56=LNETOR|11=order58099|15=EUR|21=2|38=100000|40=1|44=0|54=1|55=EUR/USD|59=3|60=20160621-10:56:03.717|10=030|
8=FIX.4.2|9=208|35=8|34=14|49=LNETOR|52=20160621-10:56:03.768|56=KOLESCHENKO_EXTOR|1=koleschenko_ext|6=0|11=order58099|14=0|15=EUR|17=NA|20=3|31=0|32=0|37=order58099|38=100000|39=0|40=1|44=0|54=1|55=EUR/USD|150=0|151=100000|10=022|
8=FIX.4.2|9=233|35=8|34=15|49=LNETOR|52=20160621-10:56:04.526|56=KOLESCHENKO_EXTOR|1=koleschenko_ext|6=0|11=order58099|14=0|15=EUR|17=NA|20=3|31=0|32=0|37=order58099|38=100000|39=4|40=1|44=0|54=1|55=EUR/USD|58=Expired: TTL exceeded|150=4|151=100000|10=055|
8=FIX.4.2|9=159|35=D|34=11|49=KOLESCHENKO_EXTOR|52=20160621-10:56:06.731|56=LNETOR|11=order61113|15=EUR|21=2|38=100000|40=1|44=0|54=2|55=EUR/USD|59=3|60=20160621-10:56:06.731|10=015|
8=FIX.4.2|9=208|35=8|34=16|49=LNETOR|52=20160621-10:56:06.773|56=KOLESCHENKO_EXTOR|1=koleschenko_ext|6=0|11=order61113|14=0|15=EUR|17=NA|20=3|31=0|32=0|37=order61113|38=100000|39=0|40=1|44=0|54=2|55=EUR/USD|150=0|151=100000|10=242|
8=FIX.4.2|9=233|35=8|34=17|49=LNETOR|52=20160621-10:56:07.525|56=KOLESCHENKO_EXTOR|1=koleschenko_ext|6=0|11=order61113|14=0|15=EUR|17=NA|20=3|31=0|32=0|37=order61113|38=100000|39=4|40=1|44=0|54=2|55=EUR/USD|58=Expired: TTL exceeded|150=4|151=100000|10=022|
8=FIX.4.2|9=159|35=D|34=12|49=KOLESCHENKO_EXTOR|52=20160621-10:56:09.738|56=LNETOR|11=order64117|15=EUR|21=2|38=100000|40=1|44=0|54=1|55=EUR/USD|59=4|60=20160621-10:56:09.736|10=041|
8=FIX.4.2|9=208|35=8|34=18|49=LNETOR|52=20160621-10:56:09.781|56=KOLESCHENKO_EXTOR|1=koleschenko_ext|6=0|11=order64117|14=0|15=EUR|17=NA|20=3|31=0|32=0|37=order64117|38=100000|39=0|40=1|44=0|54=1|55=EUR/USD|150=0|151=100000|10=003|
8=FIX.4.2|9=233|35=8|34=19|49=LNETOR|52=20160621-10:56:10.543|56=KOLESCHENKO_EXTOR|1=koleschenko_ext|6=0|11=order64117|14=0|15=EUR|17=NA|20=3|31=0|32=0|37=order64117|38=100000|39=4|40=1|44=0|54=1|55=EUR/USD|58=Expired: TTL exceeded|150=4|151=100000|10=031|
8=FIX.4.2|9=159|35=D|34=13|49=KOLESCHENKO_EXTOR|52=20160621-10:56:12.750|56=LNETOR|11=order67125|15=EUR|21=2|38=100000|40=1|44=0|54=2|55=EUR/USD|59=4|60=20160621-10:56:12.744|10=026|
8=FIX.4.2|9=208|35=8|34=20|49=LNETOR|52=20160621-10:56:12.793|56=KOLESCHENKO_EXTOR|1=koleschenko_ext|6=0|11=order67125|14=0|15=EUR|17=NA|20=3|31=0|32=0|37=order67125|38=100000|39=0|40=1|44=0|54=2|55=EUR/USD|150=0|151=100000|10=254|
8=FIX.4.2|9=233|35=8|34=21|49=LNETOR|52=20160621-10:56:13.549|56=KOLESCHENKO_EXTOR|1=koleschenko_ext|6=0|11=order67125|14=0|15=EUR|17=NA|20=3|31=0|32=0|37=order67125|38=100000|39=4|40=1|44=0|54=2|55=EUR/USD|58=Expired: TTL exceeded|150=4|151=100000|10=038|
20161223-15:25:36.694: 8=FIX.4.2|9=84|35=A|34=1|49=KOLESCHENKO_EXTOR|52=20161223-15:25:36.666|56=LNETOR|98=0|108=60|141=Y|10=052|
20161223-15:25:36.855: 8=FIX.4.2|9=84|35=A|34=1|49=LNETOR|52=20161223-15:25:36.776|56=KOLESCHENKO_EXTOR|98=0|108=60|141=Y|10=054|
